{
  "contractName": "EventTickets",
  "abi": [
    {
      "inputs": [
        {
          "internalType": "string",
          "name": "festName",
          "type": "string"
        },
        {
          "internalType": "string",
          "name": "FestSymbol",
          "type": "string"
        },
        {
          "internalType": "uint256",
          "name": "ticketPrice",
          "type": "uint256"
        },
        {
          "internalType": "uint256",
          "name": "totalSupply",
          "type": "uint256"
        },
        {
          "internalType": "address",
          "name": "organiser",
          "type": "address"
        }
      ],
      "stateMutability": "nonpayable",
      "type": "constructor"
    },
    {
      "anonymous": false,
      "inputs": [
        {
          "indexed": true,
          "internalType": "address",
          "name": "owner",
          "type": "address"
        },
        {
          "indexed": true,
          "internalType": "address",
          "name": "approved",
          "type": "address"
        },
        {
          "indexed": true,
          "internalType": "uint256",
          "name": "tokenId",
          "type": "uint256"
        }
      ],
      "name": "Approval",
      "type": "event"
    },
    {
      "anonymous": false,
      "inputs": [
        {
          "indexed": true,
          "internalType": "address",
          "name": "owner",
          "type": "address"
        },
        {
          "indexed": true,
          "internalType": "address",
          "name": "operator",
          "type": "address"
        },
        {
          "indexed": false,
          "internalType": "bool",
          "name": "approved",
          "type": "bool"
        }
      ],
      "name": "ApprovalForAll",
      "type": "event"
    },
    {
      "anonymous": false,
      "inputs": [
        {
          "indexed": true,
          "internalType": "bytes32",
          "name": "role",
          "type": "bytes32"
        },
        {
          "indexed": true,
          "internalType": "bytes32",
          "name": "previousAdminRole",
          "type": "bytes32"
        },
        {
          "indexed": true,
          "internalType": "bytes32",
          "name": "newAdminRole",
          "type": "bytes32"
        }
      ],
      "name": "RoleAdminChanged",
      "type": "event"
    },
    {
      "anonymous": false,
      "inputs": [
        {
          "indexed": true,
          "internalType": "bytes32",
          "name": "role",
          "type": "bytes32"
        },
        {
          "indexed": true,
          "internalType": "address",
          "name": "account",
          "type": "address"
        },
        {
          "indexed": true,
          "internalType": "address",
          "name": "sender",
          "type": "address"
        }
      ],
      "name": "RoleGranted",
      "type": "event"
    },
    {
      "anonymous": false,
      "inputs": [
        {
          "indexed": true,
          "internalType": "bytes32",
          "name": "role",
          "type": "bytes32"
        },
        {
          "indexed": true,
          "internalType": "address",
          "name": "account",
          "type": "address"
        },
        {
          "indexed": true,
          "internalType": "address",
          "name": "sender",
          "type": "address"
        }
      ],
      "name": "RoleRevoked",
      "type": "event"
    },
    {
      "anonymous": false,
      "inputs": [
        {
          "indexed": true,
          "internalType": "address",
          "name": "from",
          "type": "address"
        },
        {
          "indexed": true,
          "internalType": "address",
          "name": "to",
          "type": "address"
        },
        {
          "indexed": true,
          "internalType": "uint256",
          "name": "tokenId",
          "type": "uint256"
        }
      ],
      "name": "Transfer",
      "type": "event"
    },
    {
      "inputs": [],
      "name": "DEFAULT_ADMIN_ROLE",
      "outputs": [
        {
          "internalType": "bytes32",
          "name": "",
          "type": "bytes32"
        }
      ],
      "stateMutability": "view",
      "type": "function"
    },
    {
      "inputs": [],
      "name": "MINTER_ROLE",
      "outputs": [
        {
          "internalType": "bytes32",
          "name": "",
          "type": "bytes32"
        }
      ],
      "stateMutability": "view",
      "type": "function"
    },
    {
      "inputs": [
        {
          "internalType": "address",
          "name": "to",
          "type": "address"
        },
        {
          "internalType": "uint256",
          "name": "tokenId",
          "type": "uint256"
        }
      ],
      "name": "approve",
      "outputs": [],
      "stateMutability": "nonpayable",
      "type": "function"
    },
    {
      "inputs": [
        {
          "internalType": "address",
          "name": "owner",
          "type": "address"
        }
      ],
      "name": "balanceOf",
      "outputs": [
        {
          "internalType": "uint256",
          "name": "",
          "type": "uint256"
        }
      ],
      "stateMutability": "view",
      "type": "function"
    },
    {
      "inputs": [
        {
          "internalType": "uint256",
          "name": "tokenId",
          "type": "uint256"
        }
      ],
      "name": "getApproved",
      "outputs": [
        {
          "internalType": "address",
          "name": "",
          "type": "address"
        }
      ],
      "stateMutability": "view",
      "type": "function"
    },
    {
      "inputs": [
        {
          "internalType": "bytes32",
          "name": "role",
          "type": "bytes32"
        }
      ],
      "name": "getRoleAdmin",
      "outputs": [
        {
          "internalType": "bytes32",
          "name": "",
          "type": "bytes32"
        }
      ],
      "stateMutability": "view",
      "type": "function"
    },
    {
      "inputs": [
        {
          "internalType": "bytes32",
          "name": "role",
          "type": "bytes32"
        },
        {
          "internalType": "address",
          "name": "account",
          "type": "address"
        }
      ],
      "name": "grantRole",
      "outputs": [],
      "stateMutability": "nonpayable",
      "type": "function"
    },
    {
      "inputs": [
        {
          "internalType": "bytes32",
          "name": "role",
          "type": "bytes32"
        },
        {
          "internalType": "address",
          "name": "account",
          "type": "address"
        }
      ],
      "name": "hasRole",
      "outputs": [
        {
          "internalType": "bool",
          "name": "",
          "type": "bool"
        }
      ],
      "stateMutability": "view",
      "type": "function"
    },
    {
      "inputs": [
        {
          "internalType": "address",
          "name": "owner",
          "type": "address"
        },
        {
          "internalType": "address",
          "name": "operator",
          "type": "address"
        }
      ],
      "name": "isApprovedForAll",
      "outputs": [
        {
          "internalType": "bool",
          "name": "",
          "type": "bool"
        }
      ],
      "stateMutability": "view",
      "type": "function"
    },
    {
      "inputs": [],
      "name": "name",
      "outputs": [
        {
          "internalType": "string",
          "name": "",
          "type": "string"
        }
      ],
      "stateMutability": "view",
      "type": "function"
    },
    {
      "inputs": [
        {
          "internalType": "uint256",
          "name": "tokenId",
          "type": "uint256"
        }
      ],
      "name": "ownerOf",
      "outputs": [
        {
          "internalType": "address",
          "name": "",
          "type": "address"
        }
      ],
      "stateMutability": "view",
      "type": "function"
    },
    {
      "inputs": [
        {
          "internalType": "bytes32",
          "name": "role",
          "type": "bytes32"
        },
        {
          "internalType": "address",
          "name": "account",
          "type": "address"
        }
      ],
      "name": "renounceRole",
      "outputs": [],
      "stateMutability": "nonpayable",
      "type": "function"
    },
    {
      "inputs": [
        {
          "internalType": "bytes32",
          "name": "role",
          "type": "bytes32"
        },
        {
          "internalType": "address",
          "name": "account",
          "type": "address"
        }
      ],
      "name": "revokeRole",
      "outputs": [],
      "stateMutability": "nonpayable",
      "type": "function"
    },
    {
      "inputs": [
        {
          "internalType": "address",
          "name": "from",
          "type": "address"
        },
        {
          "internalType": "address",
          "name": "to",
          "type": "address"
        },
        {
          "internalType": "uint256",
          "name": "tokenId",
          "type": "uint256"
        }
      ],
      "name": "safeTransferFrom",
      "outputs": [],
      "stateMutability": "nonpayable",
      "type": "function"
    },
    {
      "inputs": [
        {
          "internalType": "address",
          "name": "from",
          "type": "address"
        },
        {
          "internalType": "address",
          "name": "to",
          "type": "address"
        },
        {
          "internalType": "uint256",
          "name": "tokenId",
          "type": "uint256"
        },
        {
          "internalType": "bytes",
          "name": "_data",
          "type": "bytes"
        }
      ],
      "name": "safeTransferFrom",
      "outputs": [],
      "stateMutability": "nonpayable",
      "type": "function"
    },
    {
      "inputs": [
        {
          "internalType": "address",
          "name": "operator",
          "type": "address"
        },
        {
          "internalType": "bool",
          "name": "approved",
          "type": "bool"
        }
      ],
      "name": "setApprovalForAll",
      "outputs": [],
      "stateMutability": "nonpayable",
      "type": "function"
    },
    {
      "inputs": [],
      "name": "symbol",
      "outputs": [
        {
          "internalType": "string",
          "name": "",
          "type": "string"
        }
      ],
      "stateMutability": "view",
      "type": "function"
    },
    {
      "inputs": [
        {
          "internalType": "uint256",
          "name": "tokenId",
          "type": "uint256"
        }
      ],
      "name": "tokenURI",
      "outputs": [
        {
          "internalType": "string",
          "name": "",
          "type": "string"
        }
      ],
      "stateMutability": "view",
      "type": "function"
    },
    {
      "inputs": [
        {
          "internalType": "address",
          "name": "from",
          "type": "address"
        },
        {
          "internalType": "address",
          "name": "to",
          "type": "address"
        },
        {
          "internalType": "uint256",
          "name": "tokenId",
          "type": "uint256"
        }
      ],
      "name": "transferFrom",
      "outputs": [],
      "stateMutability": "nonpayable",
      "type": "function"
    },
    {
      "inputs": [
        {
          "internalType": "bytes4",
          "name": "interfaceId",
          "type": "bytes4"
        }
      ],
      "name": "supportsInterface",
      "outputs": [
        {
          "internalType": "bool",
          "name": "",
          "type": "bool"
        }
      ],
      "stateMutability": "view",
      "type": "function"
    },
    {
      "inputs": [
        {
          "internalType": "uint256",
          "name": "numOfTickets",
          "type": "uint256"
        },
        {
          "internalType": "address",
          "name": "operator",
          "type": "address"
        }
      ],
      "name": "bulkMintTickets",
      "outputs": [],
      "stateMutability": "nonpayable",
      "type": "function"
    },
    {
      "inputs": [
        {
          "internalType": "address",
          "name": "buyer",
          "type": "address"
        }
      ],
      "name": "transferTicket",
      "outputs": [],
      "stateMutability": "nonpayable",
      "type": "function"
    },
    {
      "inputs": [
        {
          "internalType": "address",
          "name": "buyer",
          "type": "address"
        },
        {
          "internalType": "uint256",
          "name": "saleTicketId",
          "type": "uint256"
        }
      ],
      "name": "secondaryTransferTicket",
      "outputs": [],
      "stateMutability": "nonpayable",
      "type": "function"
    },
    {
      "inputs": [
        {
          "internalType": "uint256",
          "name": "ticketId",
          "type": "uint256"
        },
        {
          "internalType": "uint256",
          "name": "sellingPrice",
          "type": "uint256"
        },
        {
          "internalType": "address",
          "name": "operator",
          "type": "address"
        }
      ],
      "name": "setSaleDetails",
      "outputs": [],
      "stateMutability": "nonpayable",
      "type": "function"
    },
    {
      "inputs": [],
      "name": "getTicketPrice",
      "outputs": [
        {
          "internalType": "uint256",
          "name": "",
          "type": "uint256"
        }
      ],
      "stateMutability": "view",
      "type": "function"
    },
    {
      "inputs": [],
      "name": "getOrganiser",
      "outputs": [
        {
          "internalType": "address",
          "name": "",
          "type": "address"
        }
      ],
      "stateMutability": "view",
      "type": "function"
    },
    {
      "inputs": [],
      "name": "ticketCounts",
      "outputs": [
        {
          "internalType": "uint256",
          "name": "",
          "type": "uint256"
        }
      ],
      "stateMutability": "view",
      "type": "function"
    },
    {
      "inputs": [],
      "name": "getNextSaleTicketId",
      "outputs": [
        {
          "internalType": "uint256",
          "name": "",
          "type": "uint256"
        }
      ],
      "stateMutability": "view",
      "type": "function"
    },
    {
      "inputs": [
        {
          "internalType": "uint256",
          "name": "ticketId",
          "type": "uint256"
        }
      ],
      "name": "getSellingPrice",
      "outputs": [
        {
          "internalType": "uint256",
          "name": "",
          "type": "uint256"
        }
      ],
      "stateMutability": "view",
      "type": "function"
    },
    {
      "inputs": [],
      "name": "getTicketsForSale",
      "outputs": [
        {
          "internalType": "uint256[]",
          "name": "",
          "type": "uint256[]"
        }
      ],
      "stateMutability": "view",
      "type": "function"
    },
    {
      "inputs": [
        {
          "internalType": "uint256",
          "name": "ticketId",
          "type": "uint256"
        }
      ],
      "name": "getTicketDetails",
      "outputs": [
        {
          "internalType": "uint256",
          "name": "purchasePrice",
          "type": "uint256"
        },
        {
          "internalType": "uint256",
          "name": "sellingPrice",
          "type": "uint256"
        },
        {
          "internalType": "bool",
          "name": "forSale",
          "type": "bool"
        }
      ],
      "stateMutability": "view",
      "type": "function"
    },
    {
      "inputs": [
        {
          "internalType": "address",
          "name": "customer",
          "type": "address"
        }
      ],
      "name": "getTicketsOfCustomer",
      "outputs": [
        {
          "internalType": "uint256[]",
          "name": "",
          "type": "uint256[]"
        }
      ],
      "stateMutability": "view",
      "type": "function"
    }
  ],
  "bytecode": "0x60806040523480156200001157600080fd5b5060405162004c9038038062004c9083398181016040528101906200003791906200055f565b848481600190805190602001906200005192919062000272565b5080600290805190602001906200006a92919062000272565b5050506200009f7f9f2df0fed2c77648de5860a4cc508cd0818c85b8b8a1ab4ceeef8d981c8956a682620000f960201b60201c565b82600c8190555081600d8190555080600960006101000a81548173ffffffffffffffffffffffffffffffffffffffff021916908373ffffffffffffffffffffffffffffffffffffffff16021790555050505050506200068a565b6200010b82826200010f60201b60201c565b5050565b6200012182826200020060201b60201c565b620001fc57600160008084815260200190815260200160002060000160008373ffffffffffffffffffffffffffffffffffffffff1673ffffffffffffffffffffffffffffffffffffffff16815260200190815260200160002060006101000a81548160ff021916908315150217905550620001a16200026a60201b60201c565b73ffffffffffffffffffffffffffffffffffffffff168173ffffffffffffffffffffffffffffffffffffffff16837f2f8788117e7eff1d82e926ec794901d17c78024a50270940304540a733656f0d60405160405180910390a45b5050565b600080600084815260200190815260200160002060000160008373ffffffffffffffffffffffffffffffffffffffff1673ffffffffffffffffffffffffffffffffffffffff16815260200190815260200160002060009054906101000a900460ff16905092915050565b600033905090565b828054620002809062000654565b90600052602060002090601f016020900481019282620002a45760008555620002f0565b82601f10620002bf57805160ff1916838001178555620002f0565b82800160010185558215620002f0579182015b82811115620002ef578251825591602001919060010190620002d2565b5b509050620002ff919062000303565b5090565b5b808211156200031e57600081600090555060010162000304565b5090565b6000604051905090565b600080fd5b600080fd5b600080fd5b600080fd5b6000601f19601f8301169050919050565b7f4e487b7100000000000000000000000000000000000000000000000000000000600052604160045260246000fd5b6200038b8262000340565b810181811067ffffffffffffffff82111715620003ad57620003ac62000351565b5b80604052505050565b6000620003c262000322565b9050620003d0828262000380565b919050565b600067ffffffffffffffff821115620003f357620003f262000351565b5b620003fe8262000340565b9050602081019050919050565b60005b838110156200042b5780820151818401526020810190506200040e565b838111156200043b576000848401525b50505050565b6000620004586200045284620003d5565b620003b6565b9050828152602081018484840111156200047757620004766200033b565b5b620004848482856200040b565b509392505050565b600082601f830112620004a457620004a362000336565b5b8151620004b684826020860162000441565b91505092915050565b6000819050919050565b620004d481620004bf565b8114620004e057600080fd5b50565b600081519050620004f481620004c9565b92915050565b600073ffffffffffffffffffffffffffffffffffffffff82169050919050565b60006200052782620004fa565b9050919050565b62000539816200051a565b81146200054557600080fd5b50565b60008151905062000559816200052e565b92915050565b600080600080600060a086880312156200057e576200057d6200032c565b5b600086015167ffffffffffffffff8111156200059f576200059e62000331565b5b620005ad888289016200048c565b955050602086015167ffffffffffffffff811115620005d157620005d062000331565b5b620005df888289016200048c565b9450506040620005f288828901620004e3565b93505060606200060588828901620004e3565b9250506080620006188882890162000548565b9150509295509295909350565b7f4e487b7100000000000000000000000000000000000000000000000000000000600052602260045260246000fd5b600060028204905060018216806200066d57607f821691505b6020821081141562000684576200068362000625565b5b50919050565b6145f6806200069a6000396000f3fe608060405234801561001057600080fd5b50600436106101f05760003560e01c80636afadefb1161010f578063b632c9e4116100a2578063d539139311610071578063d5391393146105dd578063d547741f146105fb578063e3278ad614610617578063e985e9c514610635576101f0565b8063b632c9e414610545578063b88d4fde14610575578063c83b459014610591578063c87b56dd146105ad576101f0565b806391d14854116100de57806391d14854146104bd57806395d89b41146104ed578063a217fddf1461050b578063a22cb46514610529576101f0565b80636afadefb1461043757806370a0823114610453578063750e024c1461048357806387bb7ae01461049f576101f0565b806324c141601161018757806342842e0e1161015657806342842e0e1461039f578063569e35db146103bb5780636352211e146103eb57806364d7f44f1461041b576101f0565b806324c14160146103175780632f2ff15d1461034957806335fe12d81461036557806336568abe14610383576101f0565b8063095ea7b3116101c3578063095ea7b3146102915780630b705578146102ad57806323b872dd146102cb578063248a9ca3146102e7576101f0565b806301ffc9a7146101f5578063065366ee1461022557806306fdde0314610243578063081812fc14610261575b600080fd5b61020f600480360381019061020a9190612d5f565b610665565b60405161021c9190612da7565b60405180910390f35b61022d610677565b60405161023a9190612ddb565b60405180910390f35b61024b610688565b6040516102589190612e8f565b60405180910390f35b61027b60048036038101906102769190612edd565b61071a565b6040516102889190612f4b565b60405180910390f35b6102ab60048036038101906102a69190612f92565b61079f565b005b6102b56108b7565b6040516102c29190612f4b565b60405180910390f35b6102e560048036038101906102e09190612fd2565b6108e1565b005b61030160048036038101906102fc919061305b565b610941565b60405161030e9190613097565b60405180910390f35b610331600480360381019061032c9190612edd565b610960565b604051610340939291906130b2565b60405180910390f35b610363600480360381019061035e91906130e9565b6109c4565b005b61036d6109ed565b60405161037a91906131e7565b60405180910390f35b61039d600480360381019061039891906130e9565b610a45565b005b6103b960048036038101906103b49190612fd2565b610ac8565b005b6103d560048036038101906103d09190612edd565b610ae8565b6040516103e29190612ddb565b60405180910390f35b61040560048036038101906104009190612edd565b610b08565b6040516104129190612f4b565b60405180910390f35b61043560048036038101906104309190613209565b610bba565b005b610451600480360381019061044c919061325c565b610d3c565b005b61046d6004803603810190610468919061325c565b610eb8565b60405161047a9190612ddb565b60405180910390f35b61049d60048036038101906104989190613289565b610f70565b005b6104a7611041565b6040516104b49190612ddb565b60405180910390f35b6104d760048036038101906104d291906130e9565b61104b565b6040516104e49190612da7565b60405180910390f35b6104f56110b5565b6040516105029190612e8f565b60405180910390f35b610513611147565b6040516105209190613097565b60405180910390f35b610543600480360381019061053e91906132f5565b61114e565b005b61055f600480360381019061055a919061325c565b6112cf565b60405161056c91906131e7565b60405180910390f35b61058f600480360381019061058a919061346a565b611366565b005b6105ab60048036038101906105a69190612f92565b6113c8565b005b6105c760048036038101906105c29190612edd565b6115f3565b6040516105d49190612e8f565b60405180910390f35b6105e561169a565b6040516105f29190613097565b60405180910390f35b610615600480360381019061061091906130e9565b6116be565b005b61061f6116e7565b60405161062c9190612ddb565b60405180910390f35b61064f600480360381019061064a91906134ed565b6116f8565b60405161065c9190612da7565b60405180910390f35b60006106708261178c565b9050919050565b6000610683600861186e565b905090565b6060600180546106979061355c565b80601f01602080910402602001604051908101604052809291908181526020018280546106c39061355c565b80156107105780601f106106e557610100808354040283529160200191610710565b820191906000526020600020905b8154815290600101906020018083116106f357829003601f168201915b5050505050905090565b60006107258261187c565b610764576040517f08c379a000000000000000000000000000000000000000000000000000000000815260040161075b90613600565b60405180910390fd5b6005600083815260200190815260200160002060009054906101000a900473ffffffffffffffffffffffffffffffffffffffff169050919050565b60006107aa82610b08565b90508073ffffffffffffffffffffffffffffffffffffffff168373ffffffffffffffffffffffffffffffffffffffff16141561081b576040517f08c379a000000000000000000000000000000000000000000000000000000000815260040161081290613692565b60405180910390fd5b8073ffffffffffffffffffffffffffffffffffffffff1661083a6118e8565b73ffffffffffffffffffffffffffffffffffffffff1614806108695750610868816108636118e8565b6116f8565b5b6108a8576040517f08c379a000000000000000000000000000000000000000000000000000000000815260040161089f90613724565b60405180910390fd5b6108b283836118f0565b505050565b6000600960009054906101000a900473ffffffffffffffffffffffffffffffffffffffff16905090565b6108f26108ec6118e8565b826119a9565b610931576040517f08c379a0000000000000000000000000000000000000000000000000000000008152600401610928906137b6565b60405180910390fd5b61093c838383611a87565b505050565b6000806000838152602001908152602001600020600101549050919050565b6000806000600e600085815260200190815260200160002060000154600e600086815260200190815260200160002060010154600e600087815260200190815260200160002060020160009054906101000a900460ff169250925092509193909250565b6109cd82610941565b6109de816109d96118e8565b611ce3565b6109e88383611d80565b505050565b6060600b805480602002602001604051908101604052809291908181526020018280548015610a3b57602002820191906000526020600020905b815481526020019060010190808311610a27575b5050505050905090565b610a4d6118e8565b73ffffffffffffffffffffffffffffffffffffffff168173ffffffffffffffffffffffffffffffffffffffff1614610aba576040517f08c379a0000000000000000000000000000000000000000000000000000000008152600401610ab190613848565b60405180910390fd5b610ac48282611e60565b5050565b610ae383838360405180602001604052806000815250611366565b505050565b6000600e6000838152602001908152602001600020600101549050919050565b6000806003600084815260200190815260200160002060009054906101000a900473ffffffffffffffffffffffffffffffffffffffff169050600073ffffffffffffffffffffffffffffffffffffffff168173ffffffffffffffffffffffffffffffffffffffff161415610bb1576040517f08c379a0000000000000000000000000000000000000000000000000000000008152600401610ba8906138da565b60405180910390fd5b80915050919050565b6000600e6000858152602001908152602001600020600001549050826064606e83610be59190613929565b610bef91906139b2565b82610bfa91906139e3565b11610c3a576040517f08c379a0000000000000000000000000000000000000000000000000000000008152600401610c3190613aab565b60405180910390fd5b610c6b7f9f2df0fed2c77648de5860a4cc508cd0818c85b8b8a1ab4ceeef8d981c8956a6610c666118e8565b61104b565b15610cab576040517f08c379a0000000000000000000000000000000000000000000000000000000008152600401610ca290613b3d565b60405180910390fd5b82600e6000868152602001908152602001600020600101819055506001600e600086815260200190815260200160002060020160006101000a81548160ff021916908315150217905550610cfe84611f41565b610d2c57600b8490806001815401808255809150506001900390600052602060002001600090919091909150555b610d36828561079f565b50505050565b610d466008611fa4565b6000610d52600861186e565b9050610d5d81610b08565b73ffffffffffffffffffffffffffffffffffffffff163373ffffffffffffffffffffffffffffffffffffffff1614610dca576040517f08c379a0000000000000000000000000000000000000000000000000000000008152600401610dc190613ba9565b60405180910390fd5b610ddd610dd682610b08565b83836108e1565b610de682611fba565b610e4e57600a829080600181540180825580915050600190039060005260206000200160009091909190916101000a81548173ffffffffffffffffffffffffffffffffffffffff021916908373ffffffffffffffffffffffffffffffffffffffff1602179055505b600f60008373ffffffffffffffffffffffffffffffffffffffff1673ffffffffffffffffffffffffffffffffffffffff1681526020019081526020016000208190806001815401808255809150506001900390600052602060002001600090919091909150555050565b60008073ffffffffffffffffffffffffffffffffffffffff168273ffffffffffffffffffffffffffffffffffffffff161415610f29576040517f08c379a0000000000000000000000000000000000000000000000000000000008152600401610f2090613c3b565b60405180910390fd5b600460008373ffffffffffffffffffffffffffffffffffffffff1673ffffffffffffffffffffffffffffffffffffffff168152602001908152602001600020549050919050565b600d54610f7d600761186e565b10610fbd576040517f08c379a0000000000000000000000000000000000000000000000000000000008152600401610fb490613ca7565b60405180910390fd5b6103e882610fc96116e7565b610fd391906139e3565b1115611014576040517f08c379a000000000000000000000000000000000000000000000000000000000815260040161100b90613d39565b60405180910390fd5b60005b8281101561103c5761102882612069565b50808061103490613d59565b915050611017565b505050565b6000600c54905090565b600080600084815260200190815260200160002060000160008373ffffffffffffffffffffffffffffffffffffffff1673ffffffffffffffffffffffffffffffffffffffff16815260200190815260200160002060009054906101000a900460ff16905092915050565b6060600280546110c49061355c565b80601f01602080910402602001604051908101604052809291908181526020018280546110f09061355c565b801561113d5780601f106111125761010080835404028352916020019161113d565b820191906000526020600020905b81548152906001019060200180831161112057829003601f168201915b5050505050905090565b6000801b81565b6111566118e8565b73ffffffffffffffffffffffffffffffffffffffff168273ffffffffffffffffffffffffffffffffffffffff1614156111c4576040517f08c379a00000000000000000000000000000000000000000000000000000000081526004016111bb90613dee565b60405180910390fd5b80600660006111d16118e8565b73ffffffffffffffffffffffffffffffffffffffff1673ffffffffffffffffffffffffffffffffffffffff16815260200190815260200160002060008473ffffffffffffffffffffffffffffffffffffffff1673ffffffffffffffffffffffffffffffffffffffff16815260200190815260200160002060006101000a81548160ff0219169083151502179055508173ffffffffffffffffffffffffffffffffffffffff1661127e6118e8565b73ffffffffffffffffffffffffffffffffffffffff167f17307eab39ab6107e8899845ad3d59bd9653f200f220920489ca2b5937696c31836040516112c39190612da7565b60405180910390a35050565b6060600f60008373ffffffffffffffffffffffffffffffffffffffff1673ffffffffffffffffffffffffffffffffffffffff16815260200190815260200160002080548060200260200160405190810160405280929190818152602001828054801561135a57602002820191906000526020600020905b815481526020019060010190808311611346575b50505050509050919050565b6113776113716118e8565b836119a9565b6113b6576040517f08c379a00000000000000000000000000000000000000000000000000000000081526004016113ad906137b6565b60405180910390fd5b6113c284848484612171565b50505050565b806000600e60008381526020019081526020016000206000015490506000600e6000848152602001908152602001600020600101549050806064606e8461140f9190613929565b61141991906139b2565b8361142491906139e3565b11611464576040517f08c379a000000000000000000000000000000000000000000000000000000000815260040161145b90613aab565b60405180910390fd5b600061146f85610b08565b90506000600e60008781526020019081526020016000206001015490506114978288886108e1565b6114a087611fba565b61150857600a879080600181540180825580915050600190039060005260206000200160009091909190916101000a81548173ffffffffffffffffffffffffffffffffffffffff021916908373ffffffffffffffffffffffffffffffffffffffff1602179055505b600f60008873ffffffffffffffffffffffffffffffffffffffff1673ffffffffffffffffffffffffffffffffffffffff16815260200190815260200160002086908060018154018082558091505060019003906000526020600020016000909190919091505561157882876121cd565b611581866123f6565b60405180606001604052808281526020016000815260200160001515815250600e6000888152602001908152602001600020600082015181600001556020820151816001015560408201518160020160006101000a81548160ff02191690831515021790555090505050505050505050565b60606115fe8261187c565b61163d576040517f08c379a000000000000000000000000000000000000000000000000000000000815260040161163490613e80565b60405180910390fd5b60006116476124ed565b905060008151116116675760405180602001604052806000815250611692565b8061167184612504565b604051602001611682929190613edc565b6040516020818303038152906040525b915050919050565b7f9f2df0fed2c77648de5860a4cc508cd0818c85b8b8a1ab4ceeef8d981c8956a681565b6116c782610941565b6116d8816116d36118e8565b611ce3565b6116e28383611e60565b505050565b60006116f3600761186e565b905090565b6000600660008473ffffffffffffffffffffffffffffffffffffffff1673ffffffffffffffffffffffffffffffffffffffff16815260200190815260200160002060008373ffffffffffffffffffffffffffffffffffffffff1673ffffffffffffffffffffffffffffffffffffffff16815260200190815260200160002060009054906101000a900460ff16905092915050565b60007f80ac58cd000000000000000000000000000000000000000000000000000000007bffffffffffffffffffffffffffffffffffffffffffffffffffffffff1916827bffffffffffffffffffffffffffffffffffffffffffffffffffffffff1916148061185757507f5b5e139f000000000000000000000000000000000000000000000000000000007bffffffffffffffffffffffffffffffffffffffffffffffffffffffff1916827bffffffffffffffffffffffffffffffffffffffffffffffffffffffff1916145b80611867575061186682612665565b5b9050919050565b600081600001549050919050565b60008073ffffffffffffffffffffffffffffffffffffffff166003600084815260200190815260200160002060009054906101000a900473ffffffffffffffffffffffffffffffffffffffff1673ffffffffffffffffffffffffffffffffffffffff1614159050919050565b600033905090565b816005600083815260200190815260200160002060006101000a81548173ffffffffffffffffffffffffffffffffffffffff021916908373ffffffffffffffffffffffffffffffffffffffff160217905550808273ffffffffffffffffffffffffffffffffffffffff1661196383610b08565b73ffffffffffffffffffffffffffffffffffffffff167f8c5be1e5ebec7d5bd14f71427d1e84f3dd0314c0f7b2291e5b200ac8c7c3b92560405160405180910390a45050565b60006119b48261187c565b6119f3576040517f08c379a00000000000000000000000000000000000000000000000000000000081526004016119ea90613f72565b60405180910390fd5b60006119fe83610b08565b90508073ffffffffffffffffffffffffffffffffffffffff168473ffffffffffffffffffffffffffffffffffffffff161480611a6d57508373ffffffffffffffffffffffffffffffffffffffff16611a558461071a565b73ffffffffffffffffffffffffffffffffffffffff16145b80611a7e5750611a7d81856116f8565b5b91505092915050565b8273ffffffffffffffffffffffffffffffffffffffff16611aa782610b08565b73ffffffffffffffffffffffffffffffffffffffff1614611afd576040517f08c379a0000000000000000000000000000000000000000000000000000000008152600401611af490614004565b60405180910390fd5b600073ffffffffffffffffffffffffffffffffffffffff168273ffffffffffffffffffffffffffffffffffffffff161415611b6d576040517f08c379a0000000000000000000000000000000000000000000000000000000008152600401611b6490614096565b60405180910390fd5b611b788383836126df565b611b836000826118f0565b6001600460008573ffffffffffffffffffffffffffffffffffffffff1673ffffffffffffffffffffffffffffffffffffffff1681526020019081526020016000206000828254611bd391906140b6565b925050819055506001600460008473ffffffffffffffffffffffffffffffffffffffff1673ffffffffffffffffffffffffffffffffffffffff1681526020019081526020016000206000828254611c2a91906139e3565b92505081905550816003600083815260200190815260200160002060006101000a81548173ffffffffffffffffffffffffffffffffffffffff021916908373ffffffffffffffffffffffffffffffffffffffff160217905550808273ffffffffffffffffffffffffffffffffffffffff168473ffffffffffffffffffffffffffffffffffffffff167fddf252ad1be2c89b69c2b068fc378daa952ba7f163c4a11628f55a4df523b3ef60405160405180910390a4505050565b611ced828261104b565b611d7c57611d128173ffffffffffffffffffffffffffffffffffffffff1660146126e4565b611d208360001c60206126e4565b604051602001611d31929190614182565b6040516020818303038152906040526040517f08c379a0000000000000000000000000000000000000000000000000000000008152600401611d739190612e8f565b60405180910390fd5b5050565b611d8a828261104b565b611e5c57600160008084815260200190815260200160002060000160008373ffffffffffffffffffffffffffffffffffffffff1673ffffffffffffffffffffffffffffffffffffffff16815260200190815260200160002060006101000a81548160ff021916908315150217905550611e016118e8565b73ffffffffffffffffffffffffffffffffffffffff168173ffffffffffffffffffffffffffffffffffffffff16837f2f8788117e7eff1d82e926ec794901d17c78024a50270940304540a733656f0d60405160405180910390a45b5050565b611e6a828261104b565b15611f3d57600080600084815260200190815260200160002060000160008373ffffffffffffffffffffffffffffffffffffffff1673ffffffffffffffffffffffffffffffffffffffff16815260200190815260200160002060006101000a81548160ff021916908315150217905550611ee26118e8565b73ffffffffffffffffffffffffffffffffffffffff168173ffffffffffffffffffffffffffffffffffffffff16837ff6391f5c32d9c69d2a47ea670b442974b53935d1edc7fd64eb21e047a839171b60405160405180910390a45b5050565b600080600090505b600b80549050811015611f995782600b8281548110611f6b57611f6a6141bc565b5b90600052602060002001541415611f86576001915050611f9f565b8080611f9190613d59565b915050611f49565b50600090505b919050565b6001816000016000828254019250508190555050565b600080600090505b600a8054905081101561205e578273ffffffffffffffffffffffffffffffffffffffff16600a8281548110611ffa57611ff96141bc565b5b9060005260206000200160009054906101000a900473ffffffffffffffffffffffffffffffffffffffff1673ffffffffffffffffffffffffffffffffffffffff16141561204b576001915050612064565b808061205690613d59565b915050611fc2565b50600090505b919050565b600061209c7f9f2df0fed2c77648de5860a4cc508cd0818c85b8b8a1ab4ceeef8d981c8956a66120976118e8565b61104b565b6120db576040517f08c379a00000000000000000000000000000000000000000000000000000000081526004016120d29061425d565b60405180910390fd5b6120e56007611fa4565b60006120f1600761186e565b90506120fd8382612920565b6040518060600160405280600c5481526020016000815260200160001515815250600e6000838152602001908152602001600020600082015181600001556020820151816001015560408201518160020160006101000a81548160ff02191690831515021790555090505080915050919050565b61217c848484611a87565b61218884848484612aee565b6121c7576040517f08c379a00000000000000000000000000000000000000000000000000000000081526004016121be906142ef565b60405180910390fd5b50505050565b6000600f60008473ffffffffffffffffffffffffffffffffffffffff1673ffffffffffffffffffffffffffffffffffffffff16815260200190815260200160002080549050905060005b818110156123f05782600f60008673ffffffffffffffffffffffffffffffffffffffff1673ffffffffffffffffffffffffffffffffffffffff1681526020019081526020016000208281548110612271576122706141bc565b5b906000526020600020015414156123dd57600060018261229191906139e3565b90505b8281101561237657600f60008673ffffffffffffffffffffffffffffffffffffffff1673ffffffffffffffffffffffffffffffffffffffff16815260200190815260200160002081815481106122ed576122ec6141bc565b5b9060005260206000200154600f60008773ffffffffffffffffffffffffffffffffffffffff1673ffffffffffffffffffffffffffffffffffffffff16815260200190815260200160002060018361234491906140b6565b81548110612355576123546141bc565b5b9060005260206000200181905550808061236e90613d59565b915050612294565b50600f60008573ffffffffffffffffffffffffffffffffffffffff1673ffffffffffffffffffffffffffffffffffffffff1681526020019081526020016000208054806123c6576123c561430f565b5b600190038181906000526020600020016000905590555b80806123e890613d59565b915050612217565b50505050565b6000600b80549050905060005b818110156124e85782600b82815481106124205761241f6141bc565b5b906000526020600020015414156124d557600060018261244091906139e3565b90505b828110156124ab57600b818154811061245f5761245e6141bc565b5b9060005260206000200154600b60018361247991906140b6565b8154811061248a576124896141bc565b5b906000526020600020018190555080806124a390613d59565b915050612443565b50600b8054806124be576124bd61430f565b5b600190038181906000526020600020016000905590555b80806124e090613d59565b915050612403565b505050565b606060405180602001604052806000815250905090565b6060600082141561254c576040518060400160405280600181526020017f30000000000000000000000000000000000000000000000000000000000000008152509050612660565b600082905060005b6000821461257e57808061256790613d59565b915050600a8261257791906139b2565b9150612554565b60008167ffffffffffffffff81111561259a5761259961333f565b5b6040519080825280601f01601f1916602001820160405280156125cc5781602001600182028036833780820191505090505b5090505b60008514612659576001826125e591906140b6565b9150600a856125f4919061433e565b603061260091906139e3565b60f81b818381518110612616576126156141bc565b5b60200101907effffffffffffffffffffffffffffffffffffffffffffffffffffffffffffff1916908160001a905350600a8561265291906139b2565b94506125d0565b8093505050505b919050565b60007f7965db0b000000000000000000000000000000000000000000000000000000007bffffffffffffffffffffffffffffffffffffffffffffffffffffffff1916827bffffffffffffffffffffffffffffffffffffffffffffffffffffffff191614806126d857506126d782612c76565b5b9050919050565b505050565b6060600060028360026126f79190613929565b61270191906139e3565b67ffffffffffffffff81111561271a5761271961333f565b5b6040519080825280601f01601f19166020018201604052801561274c5781602001600182028036833780820191505090505b5090507f300000000000000000000000000000000000000000000000000000000000000081600081518110612784576127836141bc565b5b60200101907effffffffffffffffffffffffffffffffffffffffffffffffffffffffffffff1916908160001a9053507f7800000000000000000000000000000000000000000000000000000000000000816001815181106127e8576127e76141bc565b5b60200101907effffffffffffffffffffffffffffffffffffffffffffffffffffffffffffff1916908160001a905350600060018460026128289190613929565b61283291906139e3565b90505b60018111156128d2577f3031323334353637383961626364656600000000000000000000000000000000600f861660108110612874576128736141bc565b5b1a60f81b82828151811061288b5761288a6141bc565b5b60200101907effffffffffffffffffffffffffffffffffffffffffffffffffffffffffffff1916908160001a905350600485901c9450806128cb9061436f565b9050612835565b5060008414612916576040517f08c379a000000000000000000000000000000000000000000000000000000000815260040161290d906143e5565b60405180910390fd5b8091505092915050565b600073ffffffffffffffffffffffffffffffffffffffff168273ffffffffffffffffffffffffffffffffffffffff161415612990576040517f08c379a000000000000000000000000000000000000000000000000000000000815260040161298790614451565b60405180910390fd5b6129998161187c565b156129d9576040517f08c379a00000000000000000000000000000000000000000000000000000000081526004016129d0906144bd565b60405180910390fd5b6129e5600083836126df565b6001600460008473ffffffffffffffffffffffffffffffffffffffff1673ffffffffffffffffffffffffffffffffffffffff1681526020019081526020016000206000828254612a3591906139e3565b92505081905550816003600083815260200190815260200160002060006101000a81548173ffffffffffffffffffffffffffffffffffffffff021916908373ffffffffffffffffffffffffffffffffffffffff160217905550808273ffffffffffffffffffffffffffffffffffffffff16600073ffffffffffffffffffffffffffffffffffffffff167fddf252ad1be2c89b69c2b068fc378daa952ba7f163c4a11628f55a4df523b3ef60405160405180910390a45050565b6000612b0f8473ffffffffffffffffffffffffffffffffffffffff16612ce0565b15612c69578373ffffffffffffffffffffffffffffffffffffffff1663150b7a02612b386118e8565b8786866040518563ffffffff1660e01b8152600401612b5a9493929190614532565b6020604051808303816000875af1925050508015612b9657506040513d601f19601f82011682018060405250810190612b939190614593565b60015b612c19573d8060008114612bc6576040519150601f19603f3d011682016040523d82523d6000602084013e612bcb565b606091505b50600081511415612c11576040517f08c379a0000000000000000000000000000000000000000000000000000000008152600401612c08906142ef565b60405180910390fd5b805181602001fd5b63150b7a0260e01b7bffffffffffffffffffffffffffffffffffffffffffffffffffffffff1916817bffffffffffffffffffffffffffffffffffffffffffffffffffffffff191614915050612c6e565b600190505b949350505050565b60007f01ffc9a7000000000000000000000000000000000000000000000000000000007bffffffffffffffffffffffffffffffffffffffffffffffffffffffff1916827bffffffffffffffffffffffffffffffffffffffffffffffffffffffff1916149050919050565b600080823b905060008111915050919050565b6000604051905090565b600080fd5b600080fd5b60007fffffffff0000000000000000000000000000000000000000000000000000000082169050919050565b612d3c81612d07565b8114612d4757600080fd5b50565b600081359050612d5981612d33565b92915050565b600060208284031215612d7557612d74612cfd565b5b6000612d8384828501612d4a565b91505092915050565b60008115159050919050565b612da181612d8c565b82525050565b6000602082019050612dbc6000830184612d98565b92915050565b6000819050919050565b612dd581612dc2565b82525050565b6000602082019050612df06000830184612dcc565b92915050565b600081519050919050565b600082825260208201905092915050565b60005b83811015612e30578082015181840152602081019050612e15565b83811115612e3f576000848401525b50505050565b6000601f19601f8301169050919050565b6000612e6182612df6565b612e6b8185612e01565b9350612e7b818560208601612e12565b612e8481612e45565b840191505092915050565b60006020820190508181036000830152612ea98184612e56565b905092915050565b612eba81612dc2565b8114612ec557600080fd5b50565b600081359050612ed781612eb1565b92915050565b600060208284031215612ef357612ef2612cfd565b5b6000612f0184828501612ec8565b91505092915050565b600073ffffffffffffffffffffffffffffffffffffffff82169050919050565b6000612f3582612f0a565b9050919050565b612f4581612f2a565b82525050565b6000602082019050612f606000830184612f3c565b92915050565b612f6f81612f2a565b8114612f7a57600080fd5b50565b600081359050612f8c81612f66565b92915050565b60008060408385031215612fa957612fa8612cfd565b5b6000612fb785828601612f7d565b9250506020612fc885828601612ec8565b9150509250929050565b600080600060608486031215612feb57612fea612cfd565b5b6000612ff986828701612f7d565b935050602061300a86828701612f7d565b925050604061301b86828701612ec8565b9150509250925092565b6000819050919050565b61303881613025565b811461304357600080fd5b50565b6000813590506130558161302f565b92915050565b60006020828403121561307157613070612cfd565b5b600061307f84828501613046565b91505092915050565b61309181613025565b82525050565b60006020820190506130ac6000830184613088565b92915050565b60006060820190506130c76000830186612dcc565b6130d46020830185612dcc565b6130e16040830184612d98565b949350505050565b60008060408385031215613100576130ff612cfd565b5b600061310e85828601613046565b925050602061311f85828601612f7d565b9150509250929050565b600081519050919050565b600082825260208201905092915050565b6000819050602082019050919050565b61315e81612dc2565b82525050565b60006131708383613155565b60208301905092915050565b6000602082019050919050565b600061319482613129565b61319e8185613134565b93506131a983613145565b8060005b838110156131da5781516131c18882613164565b97506131cc8361317c565b9250506001810190506131ad565b5085935050505092915050565b600060208201905081810360008301526132018184613189565b905092915050565b60008060006060848603121561322257613221612cfd565b5b600061323086828701612ec8565b935050602061324186828701612ec8565b925050604061325286828701612f7d565b9150509250925092565b60006020828403121561327257613271612cfd565b5b600061328084828501612f7d565b91505092915050565b600080604083850312156132a05761329f612cfd565b5b60006132ae85828601612ec8565b92505060206132bf85828601612f7d565b9150509250929050565b6132d281612d8c565b81146132dd57600080fd5b50565b6000813590506132ef816132c9565b92915050565b6000806040838503121561330c5761330b612cfd565b5b600061331a85828601612f7d565b925050602061332b858286016132e0565b9150509250929050565b600080fd5b600080fd5b7f4e487b7100000000000000000000000000000000000000000000000000000000600052604160045260246000fd5b61337782612e45565b810181811067ffffffffffffffff821117156133965761339561333f565b5b80604052505050565b60006133a9612cf3565b90506133b5828261336e565b919050565b600067ffffffffffffffff8211156133d5576133d461333f565b5b6133de82612e45565b9050602081019050919050565b82818337600083830152505050565b600061340d613408846133ba565b61339f565b9050828152602081018484840111156134295761342861333a565b5b6134348482856133eb565b509392505050565b600082601f83011261345157613450613335565b5b81356134618482602086016133fa565b91505092915050565b6000806000806080858703121561348457613483612cfd565b5b600061349287828801612f7d565b94505060206134a387828801612f7d565b93505060406134b487828801612ec8565b925050606085013567ffffffffffffffff8111156134d5576134d4612d02565b5b6134e18782880161343c565b91505092959194509250565b6000806040838503121561350457613503612cfd565b5b600061351285828601612f7d565b925050602061352385828601612f7d565b9150509250929050565b7f4e487b7100000000000000000000000000000000000000000000000000000000600052602260045260246000fd5b6000600282049050600182168061357457607f821691505b602082108114156135885761358761352d565b5b50919050565b7f4552433732313a20617070726f76656420717565727920666f72206e6f6e657860008201527f697374656e7420746f6b656e0000000000000000000000000000000000000000602082015250565b60006135ea602c83612e01565b91506135f58261358e565b604082019050919050565b60006020820190508181036000830152613619816135dd565b9050919050565b7f4552433732313a20617070726f76616c20746f2063757272656e74206f776e6560008201527f7200000000000000000000000000000000000000000000000000000000000000602082015250565b600061367c602183612e01565b915061368782613620565b604082019050919050565b600060208201905081810360008301526136ab8161366f565b9050919050565b7f4552433732313a20617070726f76652063616c6c6572206973206e6f74206f7760008201527f6e6572206e6f7220617070726f76656420666f7220616c6c0000000000000000602082015250565b600061370e603883612e01565b9150613719826136b2565b604082019050919050565b6000602082019050818103600083015261373d81613701565b9050919050565b7f4552433732313a207472616e736665722063616c6c6572206973206e6f74206f60008201527f776e6572206e6f7220617070726f766564000000000000000000000000000000602082015250565b60006137a0603183612e01565b91506137ab82613744565b604082019050919050565b600060208201905081810360008301526137cf81613793565b9050919050565b7f416363657373436f6e74726f6c3a2063616e206f6e6c792072656e6f756e636560008201527f20726f6c657320666f722073656c660000000000000000000000000000000000602082015250565b6000613832602f83612e01565b915061383d826137d6565b604082019050919050565b6000602082019050818103600083015261386181613825565b9050919050565b7f4552433732313a206f776e657220717565727920666f72206e6f6e657869737460008201527f656e7420746f6b656e0000000000000000000000000000000000000000000000602082015250565b60006138c4602983612e01565b91506138cf82613868565b604082019050919050565b600060208201905081810360008301526138f3816138b7565b9050919050565b7f4e487b7100000000000000000000000000000000000000000000000000000000600052601160045260246000fd5b600061393482612dc2565b915061393f83612dc2565b9250817fffffffffffffffffffffffffffffffffffffffffffffffffffffffffffffffff0483118215151615613978576139776138fa565b5b828202905092915050565b7f4e487b7100000000000000000000000000000000000000000000000000000000600052601260045260246000fd5b60006139bd82612dc2565b91506139c883612dc2565b9250826139d8576139d7613983565b5b828204905092915050565b60006139ee82612dc2565b91506139f983612dc2565b9250827fffffffffffffffffffffffffffffffffffffffffffffffffffffffffffffffff03821115613a2e57613a2d6138fa565b5b828201905092915050565b7f52652d73656c6c696e67207072696365206973206d6f7265207468616e20313160008201527f3025000000000000000000000000000000000000000000000000000000000000602082015250565b6000613a95602283612e01565b9150613aa082613a39565b604082019050919050565b60006020820190508181036000830152613ac481613a88565b9050919050565b7f46756e6374696f6e616c697479206f6e6c7920616c6c6f77656420666f72207360008201527f65636f6e64617279206d61726b65740000000000000000000000000000000000602082015250565b6000613b27602f83612e01565b9150613b3282613acb565b604082019050919050565b60006020820190508181036000830152613b5681613b1a565b9050919050565b7f4f6e6c7920696e697469616c20707572636861736520616c6c6f776564000000600082015250565b6000613b93601d83612e01565b9150613b9e82613b5d565b602082019050919050565b60006020820190508181036000830152613bc281613b86565b9050919050565b7f4552433732313a2062616c616e636520717565727920666f7220746865207a6560008201527f726f206164647265737300000000000000000000000000000000000000000000602082015250565b6000613c25602a83612e01565b9150613c3082613bc9565b604082019050919050565b60006020820190508181036000830152613c5481613c18565b9050919050565b7f4d6178696d756d207469636b6574206c696d6974206578636565646564210000600082015250565b6000613c91601e83612e01565b9150613c9c82613c5b565b602082019050919050565b60006020820190508181036000830152613cc081613c84565b9050919050565b7f4e756d626572206f66207469636b6574732065786365656473206d6178696d7560008201527f6d207469636b657420636f756e74000000000000000000000000000000000000602082015250565b6000613d23602e83612e01565b9150613d2e82613cc7565b604082019050919050565b60006020820190508181036000830152613d5281613d16565b9050919050565b6000613d6482612dc2565b91507fffffffffffffffffffffffffffffffffffffffffffffffffffffffffffffffff821415613d9757613d966138fa565b5b600182019050919050565b7f4552433732313a20617070726f766520746f2063616c6c657200000000000000600082015250565b6000613dd8601983612e01565b9150613de382613da2565b602082019050919050565b60006020820190508181036000830152613e0781613dcb565b9050919050565b7f4552433732314d657461646174613a2055524920717565727920666f72206e6f60008201527f6e6578697374656e7420746f6b656e0000000000000000000000000000000000602082015250565b6000613e6a602f83612e01565b9150613e7582613e0e565b604082019050919050565b60006020820190508181036000830152613e9981613e5d565b9050919050565b600081905092915050565b6000613eb682612df6565b613ec08185613ea0565b9350613ed0818560208601612e12565b80840191505092915050565b6000613ee88285613eab565b9150613ef48284613eab565b91508190509392505050565b7f4552433732313a206f70657261746f7220717565727920666f72206e6f6e657860008201527f697374656e7420746f6b656e0000000000000000000000000000000000000000602082015250565b6000613f5c602c83612e01565b9150613f6782613f00565b604082019050919050565b60006020820190508181036000830152613f8b81613f4f565b9050919050565b7f4552433732313a207472616e73666572206f6620746f6b656e2074686174206960008201527f73206e6f74206f776e0000000000000000000000000000000000000000000000602082015250565b6000613fee602983612e01565b9150613ff982613f92565b604082019050919050565b6000602082019050818103600083015261401d81613fe1565b9050919050565b7f4552433732313a207472616e7366657220746f20746865207a65726f2061646460008201527f7265737300000000000000000000000000000000000000000000000000000000602082015250565b6000614080602483612e01565b915061408b82614024565b604082019050919050565b600060208201905081810360008301526140af81614073565b9050919050565b60006140c182612dc2565b91506140cc83612dc2565b9250828210156140df576140de6138fa565b5b828203905092915050565b7f416363657373436f6e74726f6c3a206163636f756e7420000000000000000000600082015250565b6000614120601783613ea0565b915061412b826140ea565b601782019050919050565b7f206973206d697373696e6720726f6c6520000000000000000000000000000000600082015250565b600061416c601183613ea0565b915061417782614136565b601182019050919050565b600061418d82614113565b91506141998285613eab565b91506141a48261415f565b91506141b08284613eab565b91508190509392505050565b7f4e487b7100000000000000000000000000000000000000000000000000000000600052603260045260246000fd5b7f55736572206d7573742068617665206d696e74657220726f6c6520746f206d6960008201527f6e74000000000000000000000000000000000000000000000000000000000000602082015250565b6000614247602283612e01565b9150614252826141eb565b604082019050919050565b600060208201905081810360008301526142768161423a565b9050919050565b7f4552433732313a207472616e7366657220746f206e6f6e20455243373231526560008201527f63656976657220696d706c656d656e7465720000000000000000000000000000602082015250565b60006142d9603283612e01565b91506142e48261427d565b604082019050919050565b60006020820190508181036000830152614308816142cc565b9050919050565b7f4e487b7100000000000000000000000000000000000000000000000000000000600052603160045260246000fd5b600061434982612dc2565b915061435483612dc2565b92508261436457614363613983565b5b828206905092915050565b600061437a82612dc2565b9150600082141561438e5761438d6138fa565b5b600182039050919050565b7f537472696e67733a20686578206c656e67746820696e73756666696369656e74600082015250565b60006143cf602083612e01565b91506143da82614399565b602082019050919050565b600060208201905081810360008301526143fe816143c2565b9050919050565b7f4552433732313a206d696e7420746f20746865207a65726f2061646472657373600082015250565b600061443b602083612e01565b915061444682614405565b602082019050919050565b6000602082019050818103600083015261446a8161442e565b9050919050565b7f4552433732313a20746f6b656e20616c7265616479206d696e74656400000000600082015250565b60006144a7601c83612e01565b91506144b282614471565b602082019050919050565b600060208201905081810360008301526144d68161449a565b9050919050565b600081519050919050565b600082825260208201905092915050565b6000614504826144dd565b61450e81856144e8565b935061451e818560208601612e12565b61452781612e45565b840191505092915050565b60006080820190506145476000830187612f3c565b6145546020830186612f3c565b6145616040830185612dcc565b818103606083015261457381846144f9565b905095945050505050565b60008151905061458d81612d33565b92915050565b6000602082840312156145a9576145a8612cfd565b5b60006145b78482850161457e565b9150509291505056fea2646970667358221220f5745ae2e0391690d52c68e633253b28852d3758b1b74629854dfa774d49d11564736f6c634300080b0033",
  "immutableReferences": {},
  "source": "// SPDX-License-Identifier: MIT\npragma solidity >=0.4.22 <0.9.0;\n\nimport \"@openzeppelin/contracts/utils/Context.sol\";\nimport \"@openzeppelin/contracts/access/AccessControl.sol\";\nimport \"@openzeppelin/contracts/token/ERC721/ERC721.sol\";\nimport \"@openzeppelin/contracts/utils/Counters.sol\";\n\ncontract EventTickets is Context, AccessControl, ERC721 {\n\n  function supportsInterface(bytes4 interfaceId) public view virtual override(ERC721, AccessControl) returns (bool) {\n    return super.supportsInterface(interfaceId);\n}\n\nusing Counters for Counters.Counter;\n\n    Counters.Counter private _ticketIds;\n    Counters.Counter private _saleTicketId;\n\n    bytes32 public constant MINTER_ROLE = keccak256(\"MINTER_ROLE\");\n\n    struct TicketDetails {\n        uint256 purchasePrice;\n        uint256 sellingPrice;\n        bool forSale;\n    }\n\n    address private _organiser;\n    address[] private customers;\n    uint256[] private ticketsForSale;\n    uint256 private _ticketPrice;\n    uint256 private _totalSupply;\n\n    mapping(uint256 => TicketDetails) private _ticketDetails;\n    mapping(address => uint256[]) private purchasedTickets;\n\n    constructor(\n        string memory festName,\n        string memory FestSymbol,\n        uint256 ticketPrice,\n        uint256 totalSupply,\n        address organiser\n    ) public ERC721(festName, FestSymbol) {\n        _setupRole(MINTER_ROLE, organiser);\n\n        _ticketPrice = ticketPrice;\n        _totalSupply = totalSupply;\n        _organiser = organiser;\n    }\n\n    modifier isValidTicketCount {\n        require(\n            _ticketIds.current() < _totalSupply,\n            \"Maximum ticket limit exceeded!\"\n        );\n        _;\n    }\n\n    modifier isMinterRole {\n        require(\n            hasRole(MINTER_ROLE, _msgSender()),\n            \"User must have minter role to mint\"\n        );\n        _;\n    }\n\n    modifier isValidSellAmount(uint256 ticketId) {\n        uint256 purchasePrice = _ticketDetails[ticketId].purchasePrice;\n        uint256 sellingPrice = _ticketDetails[ticketId].sellingPrice;\n\n        require(\n            purchasePrice + ((purchasePrice * 110) / 100) > sellingPrice,\n            \"Re-selling price is more than 110%\"\n        );\n        _;\n    }\n\n    /*\n     * Mint new tickets and assign it to operator\n     * Access controlled by minter only\n     * Returns new ticketId\n     */\n    function mint(address operator)\n        internal\n        virtual\n        isMinterRole\n        returns (uint256)\n    {\n        _ticketIds.increment();\n        uint256 newTicketId = _ticketIds.current();\n        _mint(operator, newTicketId);\n\n        _ticketDetails[newTicketId] = TicketDetails({\n            purchasePrice: _ticketPrice,\n            sellingPrice: 0,\n            forSale: false\n        });\n\n        return newTicketId;\n    }\n\n    /*\n     * Bulk mint specified number of tickets to assign it to a operator\n     * Modifier to check the ticket count is less than total supply\n     */\n    function bulkMintTickets(uint256 numOfTickets, address operator)\n        public\n        virtual\n        isValidTicketCount\n    {\n        require(\n            (ticketCounts() + numOfTickets) <= 1000,\n            \"Number of tickets exceeds maximum ticket count\"\n        );\n\n        for (uint256 i = 0; i < numOfTickets; i++) {\n            mint(operator);\n        }\n    }\n\n    /*\n     * Primary purchase for the tickets\n     * Adds new customer if not exists\n     * Adds buyer to tickets mapping\n     * Update ticket details\n     */\n    function transferTicket(address buyer) public {\n        _saleTicketId.increment();\n        uint256 saleTicketId = _saleTicketId.current();\n\n        require(\n            msg.sender == ownerOf(saleTicketId),\n            \"Only initial purchase allowed\"\n        );\n\n        transferFrom(ownerOf(saleTicketId), buyer, saleTicketId);\n\n        if (!isCustomerExist(buyer)) {\n            customers.push(buyer);\n        }\n        purchasedTickets[buyer].push(saleTicketId);\n    }\n\n    /*\n     * Secondary purchase for the tickets\n     * Modifier to validate that the selling price shouldn't exceed 110% of purchase price for peer to peer transfers\n     * Adds new customer if not exists\n     * Adds buyer to tickets mapping\n     * Remove ticket from the seller and from sale\n     * Update ticket details\n     */\n    function secondaryTransferTicket(address buyer, uint256 saleTicketId)\n        public\n        isValidSellAmount(saleTicketId)\n    {\n        address seller = ownerOf(saleTicketId);\n        uint256 sellingPrice = _ticketDetails[saleTicketId].sellingPrice;\n\n        transferFrom(seller, buyer, saleTicketId);\n\n        if (!isCustomerExist(buyer)) {\n            customers.push(buyer);\n        }\n\n        purchasedTickets[buyer].push(saleTicketId);\n\n        removeTicketFromCustomer(seller, saleTicketId);\n        removeTicketFromSale(saleTicketId);\n\n        _ticketDetails[saleTicketId] = TicketDetails({\n            purchasePrice: sellingPrice,\n            sellingPrice: 0,\n            forSale: false\n        });\n    }\n\n    /*\n     * Add ticket for sale with its details\n     * Validate that the selling price shouldn't exceed 110% of purchase price\n     * Organiser can not use secondary market sale\n     */\n    function setSaleDetails(\n        uint256 ticketId,\n        uint256 sellingPrice,\n        address operator\n    ) public {\n        uint256 purchasePrice = _ticketDetails[ticketId].purchasePrice;\n\n        require(\n            purchasePrice + ((purchasePrice * 110) / 100) > sellingPrice,\n            \"Re-selling price is more than 110%\"\n        );\n\n        // Should not be an organiser\n        require(\n            !hasRole(MINTER_ROLE, _msgSender()),\n            \"Functionality only allowed for secondary market\"\n        );\n\n        _ticketDetails[ticketId].sellingPrice = sellingPrice;\n        _ticketDetails[ticketId].forSale = true;\n\n        if (!isSaleTicketAvailable(ticketId)) {\n            ticketsForSale.push(ticketId);\n        }\n\n        approve(operator, ticketId);\n    }\n\n    // Get ticket actual price\n    function getTicketPrice() public view returns (uint256) {\n        return _ticketPrice;\n    }\n\n    // Get organiser's address\n    function getOrganiser() public view returns (address) {\n        return _organiser;\n    }\n\n    // Get current ticketId\n    function ticketCounts() public view returns (uint256) {\n        return _ticketIds.current();\n    }\n\n    // Get next sale ticketId\n    function getNextSaleTicketId() public view returns (uint256) {\n        return _saleTicketId.current();\n    }\n\n    // Get selling price for the ticket\n    function getSellingPrice(uint256 ticketId) public view returns (uint256) {\n        return _ticketDetails[ticketId].sellingPrice;\n    }\n\n    // Get all tickets available for sale\n    function getTicketsForSale() public view returns (uint256[] memory) {\n        return ticketsForSale;\n    }\n\n    // Get ticket details\n    function getTicketDetails(uint256 ticketId)\n        public\n        view\n        returns (\n            uint256 purchasePrice,\n            uint256 sellingPrice,\n            bool forSale\n        )\n    {\n        return (\n            _ticketDetails[ticketId].purchasePrice,\n            _ticketDetails[ticketId].sellingPrice,\n            _ticketDetails[ticketId].forSale\n        );\n    }\n\n    // Get all tickets owned by a customer\n    function getTicketsOfCustomer(address customer)\n        public\n        view\n        returns (uint256[] memory)\n    {\n        return purchasedTickets[customer];\n    }\n\n    // Utility function to check if customer exists to avoid redundancy\n    function isCustomerExist(address buyer) internal view returns (bool) {\n        for (uint256 i = 0; i < customers.length; i++) {\n            if (customers[i] == buyer) {\n                return true;\n            }\n        }\n        return false;\n    }\n\n    // Utility function used to check if ticket is already for sale\n    function isSaleTicketAvailable(uint256 ticketId)\n        internal\n        view\n        returns (bool)\n    {\n        for (uint256 i = 0; i < ticketsForSale.length; i++) {\n            if (ticketsForSale[i] == ticketId) {\n                return true;\n            }\n        }\n        return false;\n    }\n\n    // Utility function to remove ticket owned by customer from customer to ticket mapping\n    function removeTicketFromCustomer(address customer, uint256 ticketId)\n        internal\n    {\n        uint256 numOfTickets = purchasedTickets[customer].length;\n\n        for (uint256 i = 0; i < numOfTickets; i++) {\n            if (purchasedTickets[customer][i] == ticketId) {\n                for (uint256 j = i + 1; j < numOfTickets; j++) {\n                    purchasedTickets[customer][j - 1] = purchasedTickets[\n                        customer\n                    ][j];\n                }\n                purchasedTickets[customer].pop();\n            }\n        }\n    }\n\n    // Utility function to remove ticket from sale list\n    function removeTicketFromSale(uint256 ticketId) internal {\n        uint256 numOfTickets = ticketsForSale.length;\n\n        for (uint256 i = 0; i < numOfTickets; i++) {\n            if (ticketsForSale[i] == ticketId) {\n                for (uint256 j = i + 1; j < numOfTickets; j++) {\n                    ticketsForSale[j - 1] = ticketsForSale[j];\n                }\n                ticketsForSale.pop();\n            }\n        }\n    }\n\n\n}\n",
  "sourcePath": "/home/paul/Event-ticketing-app/contracts/EventTickets.sol",
  "compiler": {
    "name": "solc",
    "version": "0.8.11+commit.d7f03943.Emscripten.clang"
  },
  "schemaVersion": "3.4.5",
  "updatedAt": "2022-03-04T21:32:45.563Z",
  "devdoc": {
    "kind": "dev",
    "methods": {
      "approve(address,uint256)": {
        "details": "See {IERC721-approve}."
      },
      "balanceOf(address)": {
        "details": "See {IERC721-balanceOf}."
      },
      "getApproved(uint256)": {
        "details": "See {IERC721-getApproved}."
      },
      "getRoleAdmin(bytes32)": {
        "details": "Returns the admin role that controls `role`. See {grantRole} and {revokeRole}. To change a role's admin, use {_setRoleAdmin}."
      },
      "grantRole(bytes32,address)": {
        "details": "Grants `role` to `account`. If `account` had not been already granted `role`, emits a {RoleGranted} event. Requirements: - the caller must have ``role``'s admin role."
      },
      "hasRole(bytes32,address)": {
        "details": "Returns `true` if `account` has been granted `role`."
      },
      "isApprovedForAll(address,address)": {
        "details": "See {IERC721-isApprovedForAll}."
      },
      "name()": {
        "details": "See {IERC721Metadata-name}."
      },
      "ownerOf(uint256)": {
        "details": "See {IERC721-ownerOf}."
      },
      "renounceRole(bytes32,address)": {
        "details": "Revokes `role` from the calling account. Roles are often managed via {grantRole} and {revokeRole}: this function's purpose is to provide a mechanism for accounts to lose their privileges if they are compromised (such as when a trusted device is misplaced). If the calling account had been granted `role`, emits a {RoleRevoked} event. Requirements: - the caller must be `account`."
      },
      "revokeRole(bytes32,address)": {
        "details": "Revokes `role` from `account`. If `account` had been granted `role`, emits a {RoleRevoked} event. Requirements: - the caller must have ``role``'s admin role."
      },
      "safeTransferFrom(address,address,uint256)": {
        "details": "See {IERC721-safeTransferFrom}."
      },
      "safeTransferFrom(address,address,uint256,bytes)": {
        "details": "See {IERC721-safeTransferFrom}."
      },
      "setApprovalForAll(address,bool)": {
        "details": "See {IERC721-setApprovalForAll}."
      },
      "symbol()": {
        "details": "See {IERC721Metadata-symbol}."
      },
      "tokenURI(uint256)": {
        "details": "See {IERC721Metadata-tokenURI}."
      },
      "transferFrom(address,address,uint256)": {
        "details": "See {IERC721-transferFrom}."
      }
    },
    "version": 1
  },
  "userdoc": {
    "kind": "user",
    "methods": {},
    "version": 1
  }
}